:020000040000FA
:040000008A01052844
:040004000034003490
:08000800842D8B1783160313EE
:100010008101C730810083122630B600B5018316F6
:1000200085010516F33086008701880107168715BC
:1000300083128501860187018801AF26F9201030DF
:10004000BC00BD01BE01A301030123084420003A06
:1000500003192D28F024A30A2528B124B124B124A2
:10006000F620A301030123085620003A03193B2878
:10007000F024A30A33281830E124B124861C3B283D
:10008000060E0F39172131288207573465346C3436
:1000900063346F346D346534213400348207503456
:1000A0006134753473346534643400348207413408
:1000B0003A34533474346134723474342C3420340C
:1000C00042343A3450344C346F3467342C34203456
:1000D00043343A34543469346D346534003482071F
:1000E000543465347334743469346E346734203472
:1000F000433461346E3464346C34653473340034A6
:100100008207533477346934743463346834203468
:100110004F346E3400348207533477346934743486
:100120006334683420344F346634663400348207D4
:10013000463469346E3469347334683465346434F5
:100140002034543465347334743469346E34673411
:1001500000348207523475346E34743469346D342B
:1001600065343A34203400348207503465347234B4
:100170006D3461346E3465346E34743420344C34F0
:100180006F34673400348207533465346C3465341B
:1001900063347434203454347234693461346C34CC
:1001A00000348207543469346D3465343A34003491
:1001B0008207573472346934743469346E34673466
:1001C0002034453445340034820750343A342034E6
:1001D000463446343A3420344C3446343A342034AD
:1001E0004E343A340034C030E12408000130E124B8
:1001F0000800831288157B257B257B253330E1247D
:100200007B257B253230E1247B257B252830E124AA
:100210007B257B250C30E1247B257B250630E124E2
:100220007B257B250130E1247B257B250800A5006B
:10023000033A031D5D29F620A301030123086F2063
:10024000003A03192629F024A30A1E29B124F62016
:100250007F248B1684218B12F6209A24A30103019C
:1002600023089720003A03193829F024A30A3029DB
:10027000F320A30103012308A920003A031943290D
:10028000F024A30A3B290125B501DE251030BC006E
:100290003208BE009825BC0A3308BE009825BC0A67
:1002A0003408BE009825BC0A4008BE0098251624D4
:1002B000F6201C221624F62008002508073A031D04
:1002C0007A29F620A30103012308B420003A031978
:1002D0006C29F024A30A6429F320A3010301230855
:1002E000C320003A03197729F024A30A6F29CC22EE
:1002F000F620080025080B3A031D8229F6201A244F
:10030000F6200800F6200800AF01B201B301B401E5
:10031000C001C101C201C301C401C501C601C701B9
:10032000C801C901A301030123086F20003A031982
:100330009C29F024A30A942900308500CA214A0888
:10034000C10001308500CA214A08C2000230850080
:10035000CA214A08C30003308500CA214A08C400E4
:1003600004308500CA214A08C50005308500CA212D
:100370004A08C60006308500CA214A08C70007306F
:100380008500CA214A08C80008308500CA214A08E9
:10039000C9000800B124BF0105081039031DD52983
:1003A000C00AAF0A0130CA00F229BF01B124B1244A
:1003B000B124B124B124B124B124CA01AF0A8030E0
:1003C000E124BF1FE729B30A0430CA00F2293F081D
:1003D000F839031DEF29B40A0230CA00F229B20A23
:1003E0000830CA00F6202F080F39303EF0243E2591
:1003F000F320A30103012308E420003A0319032A90
:10040000F024A30AFB29C230E12432080F39303E20
:10041000F024C630E12433080F39303EF024CA30CE
:10042000E12434080F39303EF024CD30E124400877
:100430000F39303EF02408008030E124A30103018D
:100440002308C320003A0319282AF024A30A202AEB
:10045000B124861C1C2A060E0F39A500003A031D84
:100460003C2A4108CA00F3203130F0243A30F0240D
:10047000B522B124F6201C2A2508013A031D4B2A77
:100480004208CA00F3203230F0243A30F024B5227A
:10049000B124F6201C2A2508023A031D5A2A4308D3
:1004A000CA00F3203330F0243A30F024B522B124CE
:1004B000F6201C2A2508043A031D692A4408CA00AC
:1004C000F3203430F0243A30F024B522B124F62061
:1004D0001C2A2508053A031D782A4508CA00F3207E
:1004E0003530F0243A30F024B522B124F6201C2A0D
:1004F0002508063A031D872A4608CA00F32036302D
:10050000F0243A30F024B522B124F6201C2A250824
:10051000083A031D962A4708CA00F3203730F02412
:100520003A30F024B522B124F6201C2A2508093AD5
:10053000031DA52A4808CA00F3203830F0243A30B9
:10054000F024B522B124F6201C2A25080A3A031DFE
:10055000B42A4908CA00F3203930F0243A30F02494
:10056000B522B124F6201C2A08004A1CBA2A4E30B3
:10057000F024CA2ACA1CC12A4C30F0244630F02488
:10058000CA2A4A1DC82A4630F0244630F024CA2A16
:100590005030F024B12408008601A501B124861C46
:1005A000CC2A060E0F39A5002508003A031D142B8E
:1005B000F6200130A400240E0F39303EF0247B25B4
:1005C00024080F39303EF024F320A301030123084F
:1005D000E420003A0319EF2AF024A30AE72A103096
:1005E000BC00F422B124CC2ACA25C230E1243D0843
:1005F0000F39303EF024C630E124BC0ACA253D083C
:100600000F39303EF024CA30E124BC0ACA253D0827
:100610000F39303EF024CD30E124BC0ACA253D0814
:100620000F39303EF02408002508013A031D342B11
:10063000F6200230A400240E0F39303EF0247B2532
:1006400024080F39303EF024F320A30103012308CE
:10065000E420003A03192F2BF024A30A272B14308F
:10066000BC00F422B124CC2A2508023A031D542BE5
:10067000F6200330A400240E0F39303EF0247B25F1
:1006800024080F39303EF024F320A301030123088E
:10069000E420003A03194F2BF024A30A472B18300B
:1006A000BC00F422B124CC2A2508043A031D742B83
:1006B000F6200430A400240E0F39303EF0247B25B0
:1006C00024080F39303EF024F320A301030123084E
:1006D000E420003A03196F2BF024A30A672B1C3087
:1006E000BC00F422B124CC2A2508053A031D942B22
:1006F000F6200530A400240E0F39303EF0247B256F
:1007000024080F39303EF024F320A301030123080D
:10071000E420003A03198F2BF024A30A872B203002
:10072000BC00F422B124CC2A2508063A031DB42BC0
:10073000F6200630A400240E0F39303EF0247B252D
:1007400024080F39303EF024F320A30103012308CD
:10075000E420003A0319AF2BF024A30AA72B24307E
:10076000BC00F422B124CC2A2508083A031DD42B5E
:10077000F6200730A400240E0F39303EF0247B25EC
:1007800024080F39303EF024F320A301030123088D
:10079000E420003A0319CF2BF024A30AC72B2830FA
:1007A000BC00F422B124CC2A2508093A031DF42BFD
:1007B000F6200830A400240E0F39303EF0247B25AB
:1007C00024080F39303EF024F320A301030123084D
:1007D000E420003A0319EF2BF024A30AE72B2C3076
:1007E000BC00F422B124CC2A25080A3A031D142C9B
:1007F000F6200930A400240E0F39303EF0247B256A
:1008000024080F39303EF024F320A301030123080C
:10081000E420003A03190F2CF024A30A072C3030EF
:10082000BC00F422B124CC2AF6200800B124861C96
:10083000162C08000130E1243230F0243030F0244E
:10084000063083120313F300FC268312031375088A
:100850004B277708F0247808F0242F30F024053057
:1008600083120313F300FC268312031375084B272E
:100870007708F0247808F0242F30F0240430831215
:100880000313F300FC268312031375084B27770824
:10089000F0247808F024C030E124C030E124023094
:1008A00083120313F300FC268312031375084B27EE
:1008B0007708F0247808F0243A30F02401308312CD
:1008C0000313F300FC268312031375084B277708E4
:1008D000F0247808F0243A30F02400308312031317
:1008E000F300FC268312031375084B277708F024C6
:1008F0007808F024B124B124861C4D2C0800A301F3
:10090000030123088020003A0319892CF024A30A4C
:10091000812C00308700B12401308700D1240030C1
:100920008700B12401308700D12400308700B12432
:10093000F6200800A301030123088B20003A0319C5
:10094000A42CF024A30A9C2C02308700C124003080
:100950008700B12402308700D12400308700F620C0
:1009600008008830A000BD30A1000330A200A00B19
:10097000BA2CA10BBC2CA20BB72CBE2C0000000083
:1009800008004430A0004F30A1000330A200A00BAB
:10099000CA2CA10BCC2CA20BC72CCE2C0000000023
:1009A00008002030A0002030A1000330A200A00BDE
:1009B000DA2CA10BDC2CA20BD72CDE2C00000000C3
:1009C00008000811A900F039880088157B258811D6
:1009D000290EF039880088157B2588117B250800B1
:1009E0000815AA002A08F039043E880088157B25DE
:1009F00088112A0EF039043E880088157B2588115D
:100A00000800BB013508BB000830BA00B901B801C5
:100A1000B7010530390203182F25053038020318B5
:100A200032250530370203183525BA030310B50DFA
:100A3000B70D371A3825B80D381A3B25B90D0310F4
:100A40003A08031D092D3908303EF0243808303E9D
:100A5000F0243708303EF0243B08B500080003308E
:100A6000B90708000330B80708000330B7070800CB
:100A7000371203140800381203140800BB013F08A2
:100A8000BB000830BA00B901B801B701053039021E
:100A900003186C250530380203186F25053037021E
:100AA00003187225BA030310BF0DB70D371A752549
:100AB000B80D381A7825B90D03103A08031D462DD4
:100AC0003908303EF0243808303EF0243708303EF4
:100AD000F0243B08BF0008000330B90708000330CA
:100AE000B80708000330B7070800371203140800DE
:100AF0003812031408001430AC00FF30AB00AB0B0D
:100B00007F2DAC0B7D2D0800B0000308B1000B1148
:100B1000B60B8E2DB50A2630B600932D8312031323
:100B2000061C932DBF0A31088300B00E300E090059
:100B3000831203133C08831203178D0083120313DF
:100B40003E08831203178C0083168C170C158B1329
:100B500055308D00AA308D008C14000000008B17DA
:100B60000C11831203130800831203133C08831231
:100B700003178D0083168C170C158B1355308D00C1
:100B8000AA308D008C14000000008B170C1183120A
:100B900003130800831203133C08831203178D000C
:100BA000831603178C170C140000000083120C0826
:100BB00083120313BD00831203130800831203136F
:100BC0002C30BC00CA253030BC00B4252D30BC0010
:100BD000CA253130BC00B4252E30BC00CA253230C5
:100BE000BC00B4252F30BC00CA253330BC00B4256E
:100BF000831203132830BC00CA252C30BC00B42556
:100C00002930BC00CA252D30BC00B4252A30BC00D8
:100C1000CA252E30BC00B4252B30BC00CA252F308D
:100C2000BC00B425831203132430BC00CA2528302D
:100C3000BC00B4252530BC00CA252930BC00B42531
:100C40002630BC00CA252A30BC00B4252730BC00A1
:100C5000CA252B30BC00B425831203132030BC00FE
:100C6000CA252430BC00B4252130BC00CA2525305B
:100C7000BC00B4252230BC00CA252630BC00B425F7
:100C80002330BC00CA252730BC00B42583120313CF
:100C90001C30BC00CA252030BC00B4251D30BC006F
:100CA000CA252130BC00B4251E30BC00CA25223024
:100CB000BC00B4251F30BC00CA252330BC00B425BD
:100CC000831203131830BC00CA251C30BC00B425A5
:100CD0001930BC00CA251D30BC00B4251A30BC0038
:100CE000CA251E30BC00B4251B30BC00CA251F30ED
:100CF000BC00B425831203131430BC00CA2518307D
:100D0000BC00B4251530BC00CA251930BC00B42580
:100D10001630BC00CA251A30BC00B4251730BC0000
:100D2000CA251B30BC00B425831203131030BC004D
:100D3000CA251430BC00B4251130BC00CA251530BA
:100D4000BC00B4251230BC00CA251630BC00B42546
:0E0D50001330BC00CA251730BC00B4250800C3
:020D5E008316FA
:100D60000313940118308316031393000830831281
:100D70000313940094168316031311151119BE2E34
:100D800008008316031311141118C42ED0308312D7
:100D900003139300831603131419CC2E8316031325
:100DA00083160313111BF52E83120313730883128A
:100DB00003139300831603131419DC2E83160313F5
:100DC00083160313111BF52E831203137408831269
:100DD00003139300831603131419EC2E83160313C5
:100DE00083160313111BF52EF62E00008316031332
:100DF00011151119F92E0800831603131114111877
:100E0000FF2ED0308312031393008316031314199B
:100E1000072F8316031383160313111B442F83120A
:100E20000313730883120313930083160313141917
:100E3000172F8316031383160313111B442F8316D6
:100E4000031391149118222FD130831203139300AE
:100E50008316031314192A2F8316031383160313FF
:100E6000111B442F8316031391159119352F8312EB
:100E70000313130883120313F5008316031391164B
:100E80001116111A412F452F000083160313111557
:100E90001119482F080083120313F600760E0F393C
:100EA000303EF7008312031376080F39303EF80006
:100EB000080083160313111411185C2F10308312CD
:100EC00003139300831603131419642F831603135B
:100ED00083160313111B7D2F8312031370088312D3
:100EE00003139300831603131419742F831603132B
:100EF00083160313111B7D2F7D2F831603131115EA
:100F00001119802F08008316031311141118862F4E
:100F100011308312031393008316031314198E2FB9
:100F20008316031383160313111BA72F83160313B2
:100F300091159119992F8312031313088312031328
:100F4000F0008316031391161116111AA52F83169C
:0A0F5000031311151119AA2F080050
:02400E00723FFF
:00000001FF
