:020000040000FA
:040000008A01052844
:040004000034003490
:080008006E2D8B178316031304
:100010008101C730810083122630B600B5018316F6
:1000200085010516F33086008701880107168715BC
:1000300083128501860187018801C426D7201726EF
:100040001030BC00BD01BE01A301030123084520FF
:10005000003A03192E28DA24A30A26289B249B247D
:100060009B24D420A301030123085720003A03193D
:100070003C28DA24A30A34281830CB249B24861C7D
:100080003C28060E0F39F520322882075734653494
:100090006C3463346F346D3465342134003482073A
:1000A00050346134753473346534643400348207F9
:1000B00041343A34533474346134723474342C34EB
:1000C000203442343A3450344C346F3467342C3456
:1000D000203443343A34543469346D346534003454
:1000E0008207543465347334743469346E3467343D
:1000F0002034433461346E3464346C346534733486
:1001000000348207463469346E3469347334683499
:10011000653464342034543465347334743469344D
:100120006E34673400348207523475346E3474345C
:1001300069346D3465343A342034003482075034E5
:10014000653472346D3461346E3465346E347434B5
:1001500020344C346F3467340034820753346534B0
:100160006C346534633474342034543472346934F8
:1001700061346C3400348207543469346D3465342E
:100180003A340034820750343A342034463446340A
:100190003A3420344C3446343A3420344E343A34F1
:1001A0000034C030CB2408000130CB240800831277
:1001B00088156525652565253330CB24652565259E
:1001C0003230CB24652565252830CB24652565256F
:1001D0000C30CB24652565250630CB2465256525A7
:1001E0000130CB24652565250800A500033A031DD1
:1001F0003B29D420A301030123087020003A0319EE
:100200000429DA24A30AFC289B247D248B1662216E
:100210008B12D4208E24A301030123088120003AED
:1002200003191529DA24A30A0D29D120A3010301FA
:1002300023089320003A03192029DA24A30A182955
:10024000EB24B501C8251030BC003208BE00822561
:10025000BC0A3308BE008225BC0A3408BE008225D1
:10026000BC0A4008BE0082251424D4201A22352658
:100270001424D42008002508073A031D5829D42047
:10028000A301030123089E20003A03194A29DA2416
:10029000A30A4229D120A30103012308AD20003A7B
:1002A00003195529DA24A30A4D29CA22D4200800AB
:1002B00025080B3A031D6029D4201824D4200800F7
:1002C000D4200800AF01B201B301B401C001C101E3
:1002D000C201C301C401C501C601C701C801C901EA
:1002E000003085009E214A08C100013085009E2112
:1002F0004A08C200023085009E214A08C30003302C
:1003000085009E214A08C400043085009E214A08C9
:10031000C500053085009E214A08C60006308500CC
:100320009E214A08C700073085009E214A08C80060
:10033000083085009E214A08C90008009B24BF019F
:1003400005081039031DB429C00AAF0A0130CA00DC
:10035000D4202F080F39303EDA242030DA244E30F2
:10036000DA242030DA24F529BF019B249B249B2426
:100370009B24CA01AF0A8030CB243F1FD229BF1D66
:10038000D229B30A0430CA00D4202F080F39303ED6
:10039000DA242030DA244630DA244630DA242030D9
:1003A000DA24F5293F08F839031DE729B40A023099
:1003B000CA00D4202F080F39303EDA242030DA2446
:1003C0004C30DA244630DA242030DA24F529B20A17
:1003D0000830CA00D4202F080F39303EDA242030EC
:1003E000DA245030DA242030DA242825D120A30161
:1003F00003012308C220003A0319012ADA24A30AC0
:10040000F929C230CB2432080F39303EDA24C63005
:10041000CB2433080F39303EDA24CA30CB243408D9
:100420000F39303EDA24CD30CB2440080F39303E2E
:10043000DA2408008030CB24A30103012308AD2077
:10044000003A0319262ADA24A30A1E2A9B24861CB2
:100450001A2A060E0F39A500003A031D3A2A410850
:10046000CA00D1203130DA243A30DA24B3229B2476
:10047000D4201A2A2508013A031D492A4208CA0035
:10048000D1203230DA243A30DA24B3229B24D4202B
:100490001A2A2508023A031D582A4308CA00D12007
:1004A0003330DA243A30DA24B3229B24D4201A2AB7
:1004B0002508043A031D672A4408CA00D1203430B5
:1004C000DA243A30DA24B3229B24D4201A2A2508CD
:1004D000053A031D762A4508CA00D1203530DA24B2
:1004E0003A30DA24B3229B24D4201A2A2508063A6B
:1004F000031D852A4608CA00D1203630DA243A3056
:10050000DA24B3229B24D4201A2A2508083A031D92
:10051000942A4708CA00D1203730DA243A30DA2446
:10052000B3229B24D4201A2A2508093A031DA32AA2
:100530004808CA00D1203830DA243A30DA24B3220D
:100540009B24D4201A2A25080A3A031DB22A4908F6
:10055000CA00D1203930DA243A30DA24B3229B247D
:10056000D4201A2A08004A1CB82A4E30DA24C82A95
:10057000CA1CBF2A4C30DA244630DA24C82A4A1D65
:10058000C62A4630DA244630DA24C82A5030DA2423
:100590009B2408008601A5019B24861CCA2A060EFE
:1005A0000F39A5002508003A031D122BD420013075
:1005B000A400240E0F39303EDA24652524080F39B3
:1005C000303EDA24D120A30103012308C220003ADF
:1005D0000319ED2ADA24A30AE52A1030BC00F2221E
:1005E0009B24CA2AB425C230CB243D080F39303EA3
:1005F000DA24C630CB24BC0AB4253D080F39303E7E
:10060000DA24CA30CB24BC0AB4253D080F39303E69
:10061000DA24CD30CB24BC0AB4253D080F39303E56
:10062000DA2408002508013A031D322BD4200230B9
:10063000A400240E0F39303EDA24652524080F3932
:10064000303EDA24D120A30103012308C220003A5E
:1006500003192D2BDA24A30A252B1430BC00F22217
:100660009B24CA2A2508023A031D522BD4200330AA
:10067000A400240E0F39303EDA24652524080F39F2
:10068000303EDA24D120A30103012308C220003A1E
:1006900003194D2BDA24A30A452B1830BC00F22293
:1006A0009B24CA2A2508043A031D722BD420043047
:1006B000A400240E0F39303EDA24652524080F39B2
:1006C000303EDA24D120A30103012308C220003ADE
:1006D00003196D2BDA24A30A652B1C30BC00F2220F
:1006E0009B24CA2A2508053A031D922BD4200530E5
:1006F000A400240E0F39303EDA24652524080F3972
:10070000303EDA24D120A30103012308C220003A9D
:1007100003198D2BDA24A30A852B2030BC00F2228A
:100720009B24CA2A2508063A031DB22BD420063082
:10073000A400240E0F39303EDA24652524080F3931
:10074000303EDA24D120A30103012308C220003A5D
:100750000319AD2BDA24A30AA52B2430BC00F22206
:100760009B24CA2A2508083A031DD22BD42007301F
:10077000A400240E0F39303EDA24652524080F39F1
:10078000303EDA24D120A30103012308C220003A1D
:100790000319CD2BDA24A30AC52B2830BC00F22282
:1007A0009B24CA2A2508093A031DF22BD4200830BD
:1007B000A400240E0F39303EDA24652524080F39B1
:1007C000303EDA24D120A30103012308C220003ADD
:1007D0000319ED2BDA24A30AE52B2C30BC00F222FE
:1007E0009B24CA2A25080A3A031D122CD42009305A
:1007F000A400240E0F39303EDA24652524080F3971
:10080000303EDA24D120A30103012308C220003A9C
:1008100003190D2CDA24A30A052C3030BC00F22277
:100820009B24CA2AD42008009B24861C142C080070
:100830000130CB243230DA243030DA24063083120F
:100840000313F30011278312031375086027770839
:10085000DA247808DA242F30DA24053083120313DF
:10086000F300112783120313750860277708DA2431
:100870007808DA242F30DA24043083120313F300CB
:10088000112783120313750860277708DA24780884
:10089000DA24C030CB24C030CB24023083120313BF
:1008A000F300112783120313750860277708DA24F1
:1008B0007808DA243A30DA24013083120313F30083
:1008C000112783120313750860277708DA24780844
:1008D000DA243A30DA24003083120313F3001127AC
:1008E00083120313750860277708DA247808DA245E
:1008F0009B249B24861C4B2C0800003087009B24E3
:1009000001308700BB24003087009B240130870022
:10091000BB24003087009B24D420080002308700CD
:10092000AB24003087009B2402308700BB240030BA
:100930008700D42008008830A000BD30A10003301B
:10094000A200A00BA42CA10BA62CA20BA12CA82CBE
:100950000000000008004430A0004F30A100033028
:10096000A200A00BB42CA10BB62CA20BB12CB82C5E
:100970000000000008002030A0002030A10003305B
:10098000A200A00BC42CA10BC62CA20BC12CC82CFE
:100990000000000008000811A900F039880088153F
:1009A00065258811290EF03988008815652588117C
:1009B000652508000815AA002A08F039043E8800B9
:1009C0008815652588112A0EF039043E880088159F
:1009D000652588110800BB013508BB000830BA0046
:1009E000B901B801B70105303902031819250530DE
:1009F000380203181C250530370203181F25BA03D7
:100A00000310B50DB70D371A2225B80D381A252554
:100A1000B90D03103A08031DF32C3908303EDA24CF
:100A20003808303EDA243708303EDA243B08B50077
:100A300008000330B90708000330B8070800033086
:100A4000B70708003712031408003812031408000F
:100A5000BB013F08BB000830BA00B901B801B701BB
:100A60000530390203185625053038020318592578
:100A70000530370203185C25BA030310BF0DB70D0C
:100A8000371A5F25B80D381A6225B90D03103A08D8
:100A9000031D302D3908303EDA243808303EDA2480
:100AA0003708303EDA243B08BF0008000330B9079E
:100AB00008000330B80708000330B70708003712F2
:100AC000031408003812031408001430AC00FF307F
:100AD000AB00AB0B692DAC0B672D0800B000030811
:100AE000B1000B11B60B782DB50A2630B6007D2D5E
:100AF00083120313061C7D2DBF0A31088300B00E3C
:100B0000300E0900831203133C08831203178D0073
:100B1000831203133E08831203178C0083168C176D
:100B20000C158B1355308D00AA308D008C140000ED
:100B300000008B170C118312031308008312031398
:100B40003C08831203178D0083168C170C158B132A
:100B500055308D00AA308D008C14000000008B17DA
:100B60000C11831203130800831203133C08831231
:100B700003178D00831603178C170C140000000058
:100B800083120C0883120313BD00831203130800A1
:100B9000831203131830BC00B4251C30BC009E2502
:100BA0001930BC00B4251D30BC009E251A30BC0095
:100BB000B4251E30BC009E251B30BC00B4251F3060
:100BC000BC009E25831203131430BC00B4251830DA
:100BD000BC009E251530BC00B4251930BC009E25F4
:100BE0001630BC00B4251A30BC009E251730BC005E
:100BF000B4251B30BC009E25831203131030BC00AB
:100C0000B4251430BC009E251130BC00B42515302D
:100C1000BC009E251230BC00B4251630BC009E25B9
:100C20001330BC00B4251730BC009E250800831685
:100C300088010F30990098018312981718168316AF
:100C4000981683120800831299008316981C262E8A
:100C5000831208004F080F39303E83129900831623
:100C6000981C302E831203130800323023263030B4
:100C70002326063083120313F30011278312031374
:100C800075086027831203137708CF002A26780897
:100C9000CF002A262F302326053083120313F300BA
:100CA000112783120313750860277708CF002A26BF
:100CB0007808CF002A262F3023260430831203130E
:100CC000F300112783120313750860277708CF00FC
:100CD0002A267808CF002A262030232602308312C5
:100CE0000313F30011278312031375086027770895
:100CF000CF002A267808CF002A263A302326013052
:100D000083120313F300112783120313750860275E
:100D10007708CF002A267808CF002A26BF26503031
:100D200023263A302326831203133208CF002A26C3
:100D30002030232646302326463023263A302326E9
:100D4000831203133308CF002A26203023264C3089
:100D50002326463023263A302326831203133408F1
:100D6000CF002A26203023264E3023263A30232651
:100D7000831203134008CF002A26BF2608000A303A
:080D800023260D302326080094
:080D88008316031394011830D7
:100D900083160313930008308312031394009416F0
:100DA0008316031311151119D32E0800831603138C
:100DB00011141118D92ED030831203139300831607
:100DC00003131419E12E8316031383160313111B47
:100DD0000A2F8312031373088312031393008316DD
:100DE00003131419F12E8316031383160313111B17
:100DF0000A2F8312031374088312031393008316BC
:100E000003131419012F8316031383160313111BE5
:100E10000A2F0B2F000083160313111511190E2F23
:100E200008008316031311141118142FD0308312E5
:100E3000031393008316031314191C2F8316031333
:100E400083160313111B592F831203137308831284
:100E5000031393008316031314192C2F8316031303
:100E600083160313111B592F831603139114911822
:100E7000372FD130831203139300831603131419F1
:100E80003F2F8316031383160313111B592F831649
:100E90000313911591194A2F831203131308831218
:100EA0000313F5008316031391161116111A562F0A
:100EB0005A2F000083160313111511195D2F080016
:100EC00083120313F600760E0F39303EF7008312BB
:100ED000031376080F39303EF80008008316031319
:100EE00011141118712F10308312031393008316FD
:100EF00003131419792F8316031383160313111B7D
:100F0000922F831203137008831203139300831626
:100F100003131419892F8316031383160313111B4C
:100F2000922F922F8316031311151119952F080074
:100F300083160313111411189B2F113083120313FE
:100F40009300831603131419A32F83160313831618
:100F50000313111BBC2F8316031391159119AE2F88
:100F600083120313130883120313F0008316031371
:100F700091161116111ABA2F831603131115111990
:040F8000BF2F080077
:02400E00723FFF
:00000001FF
