:020000040000FA
:040000008A01052844
:040004000034003490
:08000800102E8B178316031361
:100010008101C730810083122630B6000230B5005E
:10002000831685010516F3308600870188010716BF
:10003000871583128501860187018801D126492110
:1000400024261030BC00BD01BE01A301030123081A
:100050004620003A03192F287621A30A2728D02505
:10006000D025D025D520A301030123085820003A2C
:1000700003193D287621A30A352818306721D02599
:10008000861C3D28060E0F39DC20332882075734A2
:1000900065346C3463346F346D346534213400342A
:1000A00082075034613475347334653464340034F9
:1000B000820741343A3453347434613472347434C2
:1000C0002C34203442343A3450344C346F34673456
:1000D0002C34203443343A34543469346D34653428
:1000E00000348207543465347334743469346E34A4
:1000F00067342034433461346E3464346C34653492
:10010000733400348207463469346E34693473348E
:10011000683465346434203454346534733474344E
:1001200069346E34673400348207523475346E3467
:10013000743469346D3465343A34203400348207C1
:100140005034653472346D3461346E3465346E34D9
:10015000743420344C346F346734003482075334A1
:1001600065346C34653463347434203454347234FC
:10017000693461346C3400348207543469346D342A
:1001800065343A340034820750343A3420344634EB
:1001900046343A3420344C3446343A3420344E34E5
:1001A0003A340034C030672108000130672108006C
:1001B000D025861CD8280800A500033A031D222953
:1001C000D520A301030123087120003A0319EB286D
:1001D0007621A30AE32871238B160A228B127E2331
:1001E000D520A301030123088220003A0319FB282C
:1001F0007621A30AF328D220A30103012308942027
:10020000003A031906297621A30AFE288721023025
:10021000B50021251030BC003208BE00DB24BC0A2A
:100220003308BE00DB24BC0A3408BE00DB24BC0A51
:100230004008BE00DB24D820D520C1224226D82089
:10024000D52008002508073A031D3F29D520A30122
:10025000030123089F20003A031931297621A30ABC
:100260002929D220A30103012308AE20003A031953
:100270003C297621A30A34299123D520080025089A
:100280000B3A031D4729D5206B25D5200800D52022
:1002900008008312881501220122012233306721D0
:1002A00001220122323067210122012228306721F8
:1002B000012201220C306721012201220630672130
:1002C00001220122013067210122012208000811C8
:1002D000A900F0398800881501228811290EF0390B
:1002E0008800881501228811012208000815AA003B
:1002F0002A08F039043E88008815012288112A0E48
:10030000F039043E88008815012288110800BB01DD
:100310003508BB000830BA00B901B801B701053093
:1003200039020318B521053038020318B821053009
:1003300037020318BB21BA030310B50DB70D371AE6
:10034000BE21B80D381AC121B90D03103A08031D9A
:100350008F293908303E76213808303E762137081B
:10036000303E76213B08B50008000330B90708008D
:100370000330B80708000330B7070800371203142A
:100380000800381203140800BB013F08BB00083006
:10039000BA00B901B801B701053039020318F221DA
:1003A000053038020318F521053037020318F8210B
:1003B000BA030310BF0DB70D371AFB21B80D381A59
:1003C000FE21B90D03103A08031DCC293908303E2F
:1003D00076213808303E76213708303E76213B08BA
:1003E000BF0008000330B90708000330B807080051
:1003F0000330B7070800371203140800381203143B
:1004000008001430AC00FF30AB00AB0B052AAC0B7E
:10041000032A0800AF01B201B301B401C001C10158
:10042000C201C301C401C501C601C701C801C90198
:100430000030850046224A08C1000130850046226E
:100440004A08C2000230850046224A08C300033031
:10045000850046224A08C4000430850046224A0826
:10046000C5000530850046224A08C60006308500D2
:1004700046224A08C7000730850046224A08C800BD
:100480000830850046224A08C9000800BF01050857
:100490001039031D5B2AC00AAF0A0130CA00D520FB
:1004A0002F080F39303E7621203076214E307621CC
:1004B000203076219C2ABF01D025D025D025D025FB
:1004C000CA01AF0A803067213F1F792ABF1D792AF0
:1004D000B30A0430CA00D5202F080F39303E7621E8
:1004E0002030762146307621463076212030762124
:1004F0009C2A3F08F839031D8E2AB40A0230CA002C
:10050000D5202F080F39303E7621203076214C300F
:10051000762146307621203076219C2AB20A083096
:10052000CA00D5202F080F39303E762120307621A1
:100530005030762120307621C421D220A30103013E
:100540002308C320003A0319A82A7621A30AA02A67
:10055000C230672132080F39303E7621C63067211C
:1005600033080F39303E7621CA30672134080F39FD
:10057000303E7621CD30672140080F39303E76215C
:10058000080080306721A30103012308AE20003A50
:100590000319CD2A7621A30AC52AD025861CC12A93
:1005A000060E0F39A500003A031DE12A4108CA00D2
:1005B000D220313076213A3076215A23D025D520E9
:1005C000C12A2508013A031DF02A4208CA00D22098
:1005D000323076213A3076215A23D025D520C12ACF
:1005E0002508023A031DFF2A4308CA00D2203330EF
:1005F00076213A3076215A23D025D520C12A2508E4
:10060000043A031D0E2B4408CA00D2203430762150
:100610003A3076215A23D025D520C12A2508053A1B
:10062000031D1D2B4508CA00D220353076213A30F3
:1006300076215A23D025D520C12A2508063A031D44
:100640002C2B4608CA00D220363076213A3076214B
:100650005A23D025D520C12A2508083A031D3B2B53
:100660004708CA00D220373076213A3076215A2303
:10067000D025D520C12A2508093A031D4A2B480850
:10068000CA00D220383076213A3076215A23D0253C
:10069000D520C12A25080A3A031D592B4908CA004A
:1006A000D220393076213A3076215A23D025D520F0
:1006B000C12A08004A1C5F2B4E3076216F2BCA1CC2
:1006C000662B4C307621463076216F2B4A1D6D2BE0
:1006D00046307621463076216F2B50307621D0255A
:1006E000080001308700F02500308700D025013058
:1006F0008700F02500308700D520080002308700F1
:10070000E02500308700D02502308700F02500303A
:100710008700D02501308700002600308700D520D3
:1007200008008601A501D025861C912B060E0F39E5
:10073000A5002508003A031DB92BD5200130A400DF
:10074000240E0F39303E7621012224080F39303E25
:100750007621D220A30103012308C320003A031904
:10076000B42B7621A30AAC2B1030BC00BB24D025BF
:10077000912B2508013A031DD92BD5200230A40066
:10078000240E0F39303E7621012224080F39303EE5
:100790007621D220A30103012308C320003A0319C4
:1007A000D42B7621A30ACC2B1430BC00BB24D0253B
:1007B000912B2508023A031DF92BD5200330A40004
:1007C000240E0F39303E7621012224080F39303EA5
:1007D0007621D220A30103012308C320003A031984
:1007E000F42B7621A30AEC2B1830BC00BB24D025B7
:1007F000912B2508043A031D192CD5200430A400A0
:10080000240E0F39303E7621012224080F39303E64
:100810007621D220A30103012308C320003A031943
:10082000142C7621A30A0C2C1C30BC00BB24D02530
:10083000912B2508053A031D392CD5200530A4003D
:10084000240E0F39303E7621012224080F39303E24
:100850007621D220A30103012308C320003A031903
:10086000342C7621A30A2C2C2030BC00BB24D025AC
:10087000912B2508063A031D592CD5200630A400DB
:10088000240E0F39303E7621012224080F39303EE4
:100890007621D220A30103012308C320003A0319C3
:1008A000542C7621A30A4C2C2430BC00BB24D02528
:1008B000912B2508083A031D792CD5200730A40078
:1008C000240E0F39303E7621012224080F39303EA4
:1008D0007621D220A30103012308C320003A031983
:1008E000742C7621A30A6C2C2830BC00BB24D025A4
:1008F000912B2508093A031D992CD5200830A40016
:10090000240E0F39303E7621012224080F39303E63
:100910007621D220A30103012308C320003A031942
:10092000942C7621A30A8C2C2C30BC00BB24D0251F
:10093000912B25080A3A031DB92CD5200930A400B3
:10094000240E0F39303E7621012224080F39303E23
:100950007621D220A30103012308C320003A031902
:10096000B42C7621A30AAC2C3030BC00BB24D0259B
:10097000912BD52008000D25C23067213D080F3985
:10098000303E7621C6306721BC0A0D253D080F395F
:10099000303E7621CA306721BC0A0D253D080F394B
:1009A000303E7621CD306721BC0A0D253D080F3938
:1009B000303E76210800831203133C08831203178C
:1009C0008D00831203133E08831203178C008316D5
:1009D0008C170C158B1355308D00AA308D008C149C
:1009E000000000008B170C11831203130800831200
:1009F00003133C08831203178D0083168C170C1504
:100A00008B1355308D00AA308D008C14000000002F
:100A10008B170C11831203130800831203133C0875
:100A2000831203178D00831603178C170C14000014
:100A3000000083120C0883120313BD0083120313FA
:100A400008002C30CB003030CC004A252830CB00B9
:100A50002C30CC004A252430CB002830CC004A254D
:100A60002030CB002430CC004A251C30CB00203075
:100A7000CC004A251830CB001C30CC004A2514305D
:100A8000CB001830CC004A251030CB001430CC00FD
:100A90004A250800831203134B08BC000D254C089F
:100AA000BC00F724CB0A4B08BC000D25CC0A4C082F
:100AB000BC00F724CB0A4B08BC000D25CC0A4C081F
:100AC000BC00F724CB0A4B08BC000D25CC0A4C080F
:100AD000BC00F72408000130672132307621303025
:100AE0007621063083120313F3001E2783120313AB
:100AF00075086D2777087621780876212F307621C2
:100B0000053083120313F3001E27831203137508A5
:100B10006D2777087621780876212F3076210430EA
:100B200083120313F3001E278312031375086D2726
:100B30007708762178087621C0306721C030672198
:100B4000023083120313F3001E2783120313750868
:100B50006D2777087621780876213A3076210130A2
:100B600083120313F3001E278312031375086D27E6
:100B700077087621780876213A3076210030831282
:100B80000313F3001E278312031375086D277708DC
:100B9000762178087621D025D025861C9E2D080048
:100BA0008830A000BD30A1000330A200A00BD92DD9
:100BB000A10BDB2DA20BD62DDD2D000000000800BF
:100BC0004430A0004F30A1000330A200A00BE92D5B
:100BD000A10BEB2DA20BE62DED2D0000000008006F
:100BE0002030A0002030A1000330A200A00BF92D7E
:100BF000A10BFB2DA20BF62DFD2D0000000008001F
:100C00001030A0002030A1000230A200A00B092E5D
:100C1000A10B0B2EA20B062E0D2E000000000800CB
:100C2000B0000308B1000B11B60B1A2EB50A26301E
:100C3000B6001F2E83120313061C1F2EBF0A310895
:100C40008300B00E300E0900831688010F30990022
:100C500098018312981718168316981683120800A5
:100C6000831299008316981C332E831208004D08B6
:100C70000F39303E831299008316981C3D2E831243
:100C8000031308003230302630303026063083120D
:100C90000313F3001E278312031375086D278312B5
:100CA00003137708CD0037267808CD0037262F307C
:100CB0003026053083120313F3001E27831203131B
:100CC00075086D277708CD0037267808CD003726C0
:100CD0002F303026043083120313F3001E278312B3
:100CE000031375086D277708CD0037267808CD00E7
:100CF000372620303026023083120313F3001E27DC
:100D00008312031375086D277708CD0037267808FE
:100D1000CD0037263A303026013083120313F3001A
:100D20001E278312031375086D277708CD00372619
:100D30007808CD003726CC26503030263A30302681
:100D4000831203133208CD00372620303026463078
:100D50003026463030263A303026831203133308CB
:100D6000CD003726203030264C3030264630302615
:100D70003A303026831203133408CD003726203052
:100D800030264E3030263A30302683120313400886
:100D9000CD003726CC2608000A3030260D3030260C
:020DA000080049
:0E0DA200831603139401183083160313930075
:100DB000083083120313940094168316031311153D
:100DC0001119E02E08008316031311141118E62ED2
:100DD000D030831203139300831603131419EE2EDD
:100DE0008316031383160313111B172F8312031388
:100DF0007308831203139300831603131419FE2E32
:100E00008316031383160313111B172F8312031367
:100E100074088312031393008316031314190E2FFF
:100E20008316031383160313111B172F182F0000AB
:100E300083160313111511191B2F080083160313B2
:100E400011141118212FD03083120313930083162D
:100E500003131419292F8316031383160313111B6D
:100E6000662F8312031373088312031393008316F0
:100E700003131419392F8316031383160313111B3D
:100E8000662F8316031391149118442FD1308312C7
:100E9000031393008316031314194C2F83160313A3
:100EA00083160313111B662F8316031391159119D3
:100EB000572F83120313130883120313F5008316AD
:100EC000031391161116111A632F672F0000831652
:100ED0000313111511196A2F080083120313F6006A
:100EE000760E0F39303EF7008312031376080F3960
:100EF000303EF800080083160313111411187E2FDA
:100F00001030831203139300831603131419862FD2
:100F10008316031383160313111B9F2F83120313CE
:100F20007008831203139300831603131419962F6A
:100F30008316031383160313111B9F2F9F2F8316F2
:100F4000031311151119A22F08008316031311148E
:100F50001118A82F11308312031393008316031363
:100F60001419B02F8316031383160313111BC92FF3
:100F70008316031391159119BB2F831203131308C2
:100F800083120313F0008316031391161116111A1E
:0E0F9000C72F8316031311151119CC2F08005B
:02400E00723FFF
:00000001FF
